{
  "contractName": "KVS",
  "abi": [
    {
      "anonymous": false,
      "inputs": [
        {
          "indexed": false,
          "name": "key",
          "type": "string"
        },
        {
          "indexed": false,
          "name": "value",
          "type": "uint256"
        }
      ],
      "name": "SetValue",
      "type": "event"
    },
    {
      "constant": false,
      "inputs": [
        {
          "name": "key",
          "type": "string",
          "indexed": false
        },
        {
          "name": "value",
          "type": "uint256",
          "indexed": false
        }
      ],
      "name": "GetValue",
      "outputs": [],
      "payable": false,
      "stateMutability": "nonpayable",
      "type": "event",
      "anonymous": false
    },
    {
      "constant": false,
      "inputs": [
        {
          "name": "key",
          "type": "string"
        },
        {
          "name": "value",
          "type": "uint256"
        }
      ],
      "name": "setValue",
      "outputs": [
        {
          "name": "",
          "type": "uint256"
        }
      ],
      "payable": false,
      "stateMutability": "nonpayable",
      "type": "function"
    },
    {
      "constant": false,
      "inputs": [
        {
          "name": "key",
          "type": "string"
        }
      ],
      "name": "getValue",
      "outputs": [
        {
          "name": "",
          "type": "uint256"
        }
      ],
      "payable": false,
      "stateMutability": "nonpayable",
      "type": "function"
    }
  ],
  "bytecode": "0x608060405234801561001057600080fd5b506104c7806100206000396000f3fe60806040526004361061004c576000357c0100000000000000000000000000000000000000000000000000000000900463ffffffff1680637c2da7aa14610051578063960384a014610123575b600080fd5b34801561005d57600080fd5b506101216004803603604081101561007457600080fd5b810190808035906020019064010000000081111561009157600080fd5b8201836020820111156100a357600080fd5b803590602001918460018302840111640100000000831117156100c557600080fd5b91908080601f016020809104026020016040519081016040528093929190818152602001838380828437600081840152601f19601f820116905080830192505050505050509192919290803590602001909291905050506101ff565b005b34801561012f57600080fd5b506101e96004803603602081101561014657600080fd5b810190808035906020019064010000000081111561016357600080fd5b82018360208201111561017557600080fd5b8035906020019184600183028401116401000000008311171561019757600080fd5b91908080601f016020809104026020016040519081016040528093929190818152602001838380828437600081840152601f19601f820116905080830192505050505050509192919290505050610317565b6040518082815260200191505060405180910390f35b806000836040518082805190602001908083835b6020831015156102385780518252602082019150602081019050602083039250610213565b6001836020036101000a0380198251168184511680821785525050505050509050019150509081526020016040518091039020819055507fc572bc19a5cfd44597b671ecdd2b936572e20e674b01927b342794af86dfe39182826040518080602001838152602001828103825284818151815260200191508051906020019080838360005b838110156102d85780820151818401526020810190506102bd565b50505050905090810190601f1680156103055780820380516001836020036101000a031916815260200191505b50935050505060405180910390a15050565b60007fde862761d273a65fac74489da87c0d84a27e3723c37515bf72fd871ebc6666ea826000846040518082805190602001908083835b602083101515610373578051825260208201915060208101905060208303925061034e565b6001836020036101000a0380198251168184511680821785525050505050509050019150509081526020016040518091039020546040518080602001838152602001828103825284818151815260200191508051906020019080838360005b838110156103ed5780820151818401526020810190506103d2565b50505050905090810190601f16801561041a5780820380516001836020036101000a031916815260200191505b50935050505060405180910390a16000826040518082805190602001908083835b602083101515610460578051825260208201915060208101905060208303925061043b565b6001836020036101000a038019825116818451168082178552505050505050905001915050908152602001604051809103902054905091905056fea165627a7a7230582099f32358b1089b4bcaea91bafa411ddfa5a27d5b0d03df018699ce4926c0915a0029",
  "source": "pragma solidity >=0.4.21 <0.6.0;\n\ncontract KVS {\n  mapping(string => uint256) store;\n\n  event SetValue(string key, uint value);\n  event GetValue(string key, uint value);\n\n  function setValue(string memory key, uint value) public {\n    store[key] = value;\n    emit SetValue(key, value);\n  }\n\n  function getValue(string memory key) public returns(uint) {\n    emit GetValue(key, store[key]);\n    return store[key];\n  }\n}\n",
  "sourcePath": "/Users/tkmct/.ghq/github.com/tkmct/simple-storage/contracts/KVS.sol",
  "compiler": {
    "name": "solc",
    "version": "0.5.0+commit.1d4f565a.Emscripten.clang"
  },
  "schemaVersion": "3.0.9",
  "updatedAt": "2019-06-09T08:02:17.677Z",
  "devdoc": {
    "methods": {}
  },
  "userdoc": {
    "methods": {}
  }
}